{"abi":[{"inputs":[],"stateMutability":"nonpayable","type":"constructor","name":"constructor"},{"inputs":[{"internalType":"uint256","name":"_id","type":"uint256"},{"internalType":"address[]","name":"_voters","type":"address[]"}],"name":"addvoter","outputs":[],"stateMutability":"nonpayable","type":"function"},{"inputs":[{"internalType":"string","name":"_question","type":"string"},{"internalType":"string[]","name":"_proposals","type":"string[]"},{"internalType":"string","name":"_img","type":"string"},{"internalType":"string","name":"_link","type":"string"}],"name":"createPool","outputs":[],"stateMutability":"nonpayable","type":"function"},{"inputs":[],"name":"getPoolsLength","outputs":[{"internalType":"uint256","name":"","type":"uint256"}],"stateMutability":"view","type":"function"},{"inputs":[{"internalType":"uint256","name":"_id","type":"uint256"}],"name":"getquestion","outputs":[{"internalType":"uint256","name":"","type":"uint256"}],"stateMutability":"view","type":"function"},{"inputs":[{"internalType":"uint256","name":"_id","type":"uint256"}],"name":"getwinningproposalname","outputs":[{"internalType":"string","name":"winnerName_","type":"string"}],"stateMutability":"view","type":"function"},{"inputs":[{"internalType":"uint256","name":"","type":"uint256"}],"name":"pools","outputs":[{"internalType":"contract Pool","name":"","type":"address"}],"stateMutability":"view","type":"function"}],"bytecode":"608060405234801561001057600080fd5b50600080546001600160a01b03191633179055611534806100326000396000f3fe60806040523480156200001157600080fd5b50600436106200006a5760003560e01c80630b12f32a146200006f578063354c779f1462000088578063ac4afa3814620000b7578063be2a049814620000e7578063ce883cdb14620000fe578063fa2151b41462000111575b600080fd5b620000866200008036600462000503565b62000128565b005b6200009f6200009936600462000634565b620001c5565b604051620000ae9190620006a2565b60405180910390f35b620000ce620000c836600462000634565b62000260565b6040516001600160a01b039091168152602001620000ae565b62000086620000f8366004620006b7565b6200028b565b6002545b604051908152602001620000ae565b620001026200012236600462000634565b6200036c565b838383836040516200013a90620003fd565b62000149949392919062000774565b604051809103906000f08015801562000166573d6000803e3d6000fd5b50600180546001600160a01b03929092166001600160a01b0319928316811782556002805492830181556000527f405787fa12a823e0f2b7631cc41b3ba8828b3321ca811111fa75cd3aa3bb5ace909101805490921617905550505050565b6060600060028381548110620001df57620001df62000818565b60009182526020822001546040805163a0f2c29160e01b815290516001600160a01b039092169350839263a0f2c291926004808401938290030181865afa1580156200022f573d6000803e3d6000fd5b505050506040513d6000823e601f3d908101601f191682016040526200025991908101906200082e565b9392505050565b600281815481106200027157600080fd5b6000918252602090912001546001600160a01b0316905081565b600060028381548110620002a357620002a362000818565b60009182526020822001546001600160a01b031691505b82518110156200036657816001600160a01b031663f4ab9adf848381518110620002e857620002e862000818565b60200260200101516040518263ffffffff1660e01b81526004016200031c91906001600160a01b0391909116815260200190565b600060405180830381600087803b1580156200033757600080fd5b505af11580156200034c573d6000803e3d6000fd5b5050505080806200035d90620008ae565b915050620002ba565b50505050565b6000806002838154811062000385576200038562000818565b600091825260209182902001546040805163904798bd60e01b815290516001600160a01b039092169350839263904798bd926004808401938290030181865afa158015620003d7573d6000803e3d6000fd5b505050506040513d601f19601f82011682018060405250810190620002599190620008d6565b610c0e80620008f183390190565b634e487b7160e01b600052604160045260246000fd5b604051601f8201601f1916810167ffffffffffffffff811182821017156200044d576200044d6200040b565b604052919050565b600067ffffffffffffffff8211156200047257620004726200040b565b50601f01601f191660200190565b600082601f8301126200049257600080fd5b8135620004a9620004a38262000455565b62000421565b818152846020838601011115620004bf57600080fd5b816020850160208301376000918101602001919091529392505050565b600067ffffffffffffffff821115620004f957620004f96200040b565b5060051b60200190565b600080600080608085870312156200051a57600080fd5b843567ffffffffffffffff808211156200053357600080fd5b620005418883890162000480565b95506020915081870135818111156200055957600080fd5b8701601f810189136200056b57600080fd5b80356200057c620004a382620004dc565b81815260059190911b8201840190848101908b8311156200059c57600080fd5b8584015b83811015620005d957803586811115620005ba5760008081fd5b620005ca8e898389010162000480565b845250918601918601620005a0565b5097505050506040870135915080821115620005f457600080fd5b620006028883890162000480565b935060608701359150808211156200061957600080fd5b50620006288782880162000480565b91505092959194509250565b6000602082840312156200064757600080fd5b5035919050565b60005b838110156200066b57818101518382015260200162000651565b50506000910152565b600081518084526200068e8160208601602086016200064e565b601f01601f19169290920160200192915050565b60208152600062000259602083018462000674565b60008060408385031215620006cb57600080fd5b8235915060208084013567ffffffffffffffff811115620006eb57600080fd5b8401601f81018613620006fd57600080fd5b80356200070e620004a382620004dc565b81815260059190911b820183019083810190888311156200072e57600080fd5b928401925b82841015620007655783356001600160a01b0381168114620007555760008081fd5b8252928401929084019062000733565b80955050505050509250929050565b60808152600062000789608083018762000674565b6020838203818501528187518084528284019150828160051b850101838a0160005b83811015620007dd57601f19878403018552620007ca83835162000674565b94860194925090850190600101620007ab565b50508681036040880152620007f3818a62000674565b94505050505082810360608401526200080d818562000674565b979650505050505050565b634e487b7160e01b600052603260045260246000fd5b6000602082840312156200084157600080fd5b815167ffffffffffffffff8111156200085957600080fd5b8201601f810184136200086b57600080fd5b80516200087c620004a38262000455565b8181528560208385010111156200089257600080fd5b620008a58260208301602086016200064e565b95945050505050565b600060018201620008cf57634e487b7160e01b600052601160045260246000fd5b5060010190565b600060208284031215620008e957600080fd5b505191905056fe60806040523480156200001157600080fd5b5060405162000c0e38038062000c0e8339810160408190526200003491620001eb565b6000620000428582620003c0565b5042600181905560028190556200005d9062015180620004a2565b60035560046200006e8382620003c0565b5060056200007d8282620003c0565b5060005b83518110156200010a5760066040518060400160405280868481518110620000ad57620000ad620004be565b60209081029190910181015182526000918101829052835460018101855593825290208151919260020201908190620000e79082620003c0565b5060208201518160010155505080806200010190620004d4565b91505062000081565b5050505050620004f0565b634e487b7160e01b600052604160045260246000fd5b604051601f8201601f191681016001600160401b038111828210171562000156576200015662000115565b604052919050565b600082601f8301126200017057600080fd5b81516001600160401b038111156200018c576200018c62000115565b6020620001a2601f8301601f191682016200012b565b8281528582848701011115620001b757600080fd5b60005b83811015620001d7578581018301518282018401528201620001ba565b506000928101909101919091529392505050565b600080600080608085870312156200020257600080fd5b84516001600160401b03808211156200021a57600080fd5b62000228888389016200015e565b95506020915081870151818111156200024057600080fd5b8701601f810189136200025257600080fd5b80518281111562000267576200026762000115565b8060051b620002788582016200012b565b918252828101850191858101908c8411156200029357600080fd5b86850192505b83831015620002d457825186811115620002b35760008081fd5b620002c38e89838901016200015e565b835250918601919086019062000299565b80995050505050506040870151915080821115620002f157600080fd5b620002ff888389016200015e565b935060608701519150808211156200031657600080fd5b5062000325878288016200015e565b91505092959194509250565b600181811c908216806200034657607f821691505b6020821081036200036757634e487b7160e01b600052602260045260246000fd5b50919050565b601f821115620003bb57600081815260208120601f850160051c81016020861015620003965750805b601f850160051c820191505b81811015620003b757828155600101620003a2565b5050505b505050565b81516001600160401b03811115620003dc57620003dc62000115565b620003f481620003ed845462000331565b846200036d565b602080601f8311600181146200042c5760008415620004135750858301515b600019600386901b1c1916600185901b178555620003b7565b600085815260208120601f198616915b828110156200045d578886015182559484019460019091019084016200043c565b50858210156200047c5787850151600019600388901b60f8161c191681555b5050505050600190811b01905550565b634e487b7160e01b600052601160045260246000fd5b80820180821115620004b857620004b86200048c565b92915050565b634e487b7160e01b600052603260045260246000fd5b600060018201620004e957620004e96200048c565b5060010190565b61070e80620005006000396000f3fe608060405234801561001057600080fd5b50600436106100a95760003560e01c8063609ff1bd11610071578063609ff1bd14610112578063904798bd14610128578063a0f2c29114610130578063a3ec138d14610138578063bc378a7314610185578063f4ab9adf1461018d57600080fd5b80630121b93f146100ae578063013cf08b146100c35780631bce8b4f146100ed5780631c4695f4146101025780633fad9ae01461010a575b600080fd5b6100c16100bc36600461057c565b6101f3565b005b6100d66100d136600461057c565b6102e0565b6040516100e49291906105db565b60405180910390f35b6100f561039c565b6040516100e491906105fd565b6100f561042a565b6100f5610437565b61011a610444565b6040519081526020016100e4565b60035461011a565b6100f56104c1565b61016a610146366004610617565b600760205260009081526040902080546001820154600290920154909160ff169083565b604080519384529115156020840152908201526060016100e4565b60065461011a565b6100c161019b366004610617565b604080516060810182526001808252600060208084018281528486018381526001600160a01b039790971683526007909152939020915182559151918101805460ff1916921515929092179091559051600290910155565b600354421061020157600080fd5b3360009081526007602052604090205461027a5760405162461bcd60e51b815260206004820152603060248201527f43657474652061646472657373206e27612070617320617373657a206465205760448201526f32b4b3b43a103837bab9103b37ba32b960811b606482015260840160405180910390fd5b60016006828154811061028f5761028f610640565b906000526020600020906002020160010160008282546102af919061066c565b909155505033600090815260076020526040812090815560028101919091556001908101805460ff19169091179055565b600681815481106102f057600080fd5b906000526020600020906002020160009150905080600001805461031390610685565b80601f016020809104026020016040519081016040528092919081815260200182805461033f90610685565b801561038c5780601f106103615761010080835404028352916020019161038c565b820191906000526020600020905b81548152906001019060200180831161036f57829003601f168201915b5050505050908060010154905082565b600480546103a990610685565b80601f01602080910402602001604051908101604052809291908181526020018280546103d590610685565b80156104225780601f106103f757610100808354040283529160200191610422565b820191906000526020600020905b81548152906001019060200180831161040557829003601f168201915b505050505081565b600580546103a990610685565b600080546103a990610685565b600080805b6006548110156104bc57816006828154811061046757610467610640565b90600052602060002090600202016001015411156104aa576006818154811061049257610492610640565b90600052602060002090600202016001015491508092505b806104b4816106bf565b915050610449565b505090565b606060066104cd610444565b815481106104dd576104dd610640565b906000526020600020906002020160000180546104f990610685565b80601f016020809104026020016040519081016040528092919081815260200182805461052590610685565b80156105725780601f1061054757610100808354040283529160200191610572565b820191906000526020600020905b81548152906001019060200180831161055557829003601f168201915b5050505050905090565b60006020828403121561058e57600080fd5b5035919050565b6000815180845260005b818110156105bb5760208185018101518683018201520161059f565b506000602082860101526020601f19601f83011685010191505092915050565b6040815260006105ee6040830185610595565b90508260208301529392505050565b6020815260006106106020830184610595565b9392505050565b60006020828403121561062957600080fd5b81356001600160a01b038116811461061057600080fd5b634e487b7160e01b600052603260045260246000fd5b634e487b7160e01b600052601160045260246000fd5b8082018082111561067f5761067f610656565b92915050565b600181811c9082168061069957607f821691505b6020821081036106b957634e487b7160e01b600052602260045260246000fd5b50919050565b6000600182016106d1576106d1610656565b506001019056fea2646970667358221220ea1550ffac456d5c98c02b02acb659a2361d94f7996a24c8580e828d0bad6d2a64736f6c63430008130033a264697066735822122065094056256a05f716c4eed34dafcc2a5669f9403e0c10a3a8698c545b48d46064736f6c63430008130033","bytecodeSha1":"e8d3d3fa81da53c90ba2e375e06ffe7cb9557559","compiler":{"evm_version":"istanbul","optimizer":{"enabled":true,"runs":200},"version":"0.8.19+commit.7dd6d404"},"contractName":"Factory","language":"Solidity","natspec":{"kind":"dev","methods":{},"version":1},"opcodes":"PUSH1 0x80 PUSH1 0x40 MSTORE CALLVALUE DUP1 ISZERO PUSH3 0x11 JUMPI PUSH1 0x0 DUP1 REVERT JUMPDEST POP PUSH1 0x4 CALLDATASIZE LT PUSH3 0x6A JUMPI PUSH1 0x0 CALLDATALOAD PUSH1 0xE0 SHR DUP1 PUSH4 0xB12F32A EQ PUSH3 0x6F JUMPI DUP1 PUSH4 0x354C779F EQ PUSH3 0x88 JUMPI DUP1 PUSH4 0xAC4AFA38 EQ PUSH3 0xB7 JUMPI DUP1 PUSH4 0xBE2A0498 EQ PUSH3 0xE7 JUMPI DUP1 PUSH4 0xCE883CDB EQ PUSH3 0xFE JUMPI DUP1 PUSH4 0xFA2151B4 EQ PUSH3 0x111 JUMPI JUMPDEST PUSH1 0x0 DUP1 REVERT JUMPDEST PUSH3 0x86 PUSH3 0x80 CALLDATASIZE PUSH1 0x4 PUSH3 0x503 JUMP JUMPDEST PUSH3 0x128 JUMP JUMPDEST STOP JUMPDEST PUSH3 0x9F PUSH3 0x99 CALLDATASIZE PUSH1 0x4 PUSH3 0x634 JUMP JUMPDEST PUSH3 0x1C5 JUMP JUMPDEST PUSH1 0x40 MLOAD PUSH3 0xAE SWAP2 SWAP1 PUSH3 0x6A2 JUMP JUMPDEST PUSH1 0x40 MLOAD DUP1 SWAP2 SUB SWAP1 RETURN JUMPDEST PUSH3 0xCE PUSH3 0xC8 CALLDATASIZE PUSH1 0x4 PUSH3 0x634 JUMP JUMPDEST PUSH3 0x260 JUMP JUMPDEST PUSH1 0x40 MLOAD PUSH1 0x1 PUSH1 0x1 PUSH1 0xA0 SHL SUB SWAP1 SWAP2 AND DUP2 MSTORE PUSH1 0x20 ADD PUSH3 0xAE JUMP JUMPDEST PUSH3 0x86 PUSH3 0xF8 CALLDATASIZE PUSH1 0x4 PUSH3 0x6B7 JUMP JUMPDEST PUSH3 0x28B JUMP JUMPDEST PUSH1 0x2 SLOAD JUMPDEST PUSH1 0x40 MLOAD SWAP1 DUP2 MSTORE PUSH1 0x20 ADD PUSH3 0xAE JUMP JUMPDEST PUSH3 0x102 PUSH3 0x122 CALLDATASIZE PUSH1 0x4 PUSH3 0x634 JUMP JUMPDEST PUSH3 0x36C JUMP JUMPDEST DUP4 DUP4 DUP4 DUP4 PUSH1 0x40 MLOAD PUSH3 0x13A SWAP1 PUSH3 0x3FD JUMP JUMPDEST PUSH3 0x149 SWAP5 SWAP4 SWAP3 SWAP2 SWAP1 PUSH3 0x774 JUMP JUMPDEST PUSH1 0x40 MLOAD DUP1 SWAP2 SUB SWAP1 PUSH1 0x0 CREATE DUP1 ISZERO DUP1 ISZERO PUSH3 0x166 JUMPI RETURNDATASIZE PUSH1 0x0 DUP1 RETURNDATACOPY RETURNDATASIZE PUSH1 0x0 REVERT JUMPDEST POP PUSH1 0x1 DUP1 SLOAD PUSH1 0x1 PUSH1 0x1 PUSH1 0xA0 SHL SUB SWAP3 SWAP1 SWAP3 AND PUSH1 0x1 PUSH1 0x1 PUSH1 0xA0 SHL SUB NOT SWAP3 DUP4 AND DUP2 OR DUP3 SSTORE PUSH1 0x2 DUP1 SLOAD SWAP3 DUP4 ADD DUP2 SSTORE PUSH1 0x0 MSTORE PUSH32 0x405787FA12A823E0F2B7631CC41B3BA8828B3321CA811111FA75CD3AA3BB5ACE SWAP1 SWAP2 ADD DUP1 SLOAD SWAP1 SWAP3 AND OR SWAP1 SSTORE POP POP POP POP JUMP JUMPDEST PUSH1 0x60 PUSH1 0x0 PUSH1 0x2 DUP4 DUP2 SLOAD DUP2 LT PUSH3 0x1DF JUMPI PUSH3 0x1DF PUSH3 0x818 JUMP JUMPDEST PUSH1 0x0 SWAP2 DUP3 MSTORE PUSH1 0x20 DUP3 KECCAK256 ADD SLOAD PUSH1 0x40 DUP1 MLOAD PUSH4 0xA0F2C291 PUSH1 0xE0 SHL DUP2 MSTORE SWAP1 MLOAD PUSH1 0x1 PUSH1 0x1 PUSH1 0xA0 SHL SUB SWAP1 SWAP3 AND SWAP4 POP DUP4 SWAP3 PUSH4 0xA0F2C291 SWAP3 PUSH1 0x4 DUP1 DUP5 ADD SWAP4 DUP3 SWAP1 SUB ADD DUP2 DUP7 GAS STATICCALL ISZERO DUP1 ISZERO PUSH3 0x22F JUMPI RETURNDATASIZE PUSH1 0x0 DUP1 RETURNDATACOPY RETURNDATASIZE PUSH1 0x0 REVERT JUMPDEST POP POP POP POP PUSH1 0x40 MLOAD RETURNDATASIZE PUSH1 0x0 DUP3 RETURNDATACOPY PUSH1 0x1F RETURNDATASIZE SWAP1 DUP2 ADD PUSH1 0x1F NOT AND DUP3 ADD PUSH1 0x40 MSTORE PUSH3 0x259 SWAP2 SWAP1 DUP2 ADD SWAP1 PUSH3 0x82E JUMP JUMPDEST SWAP4 SWAP3 POP POP POP JUMP JUMPDEST PUSH1 0x2 DUP2 DUP2 SLOAD DUP2 LT PUSH3 0x271 JUMPI PUSH1 0x0 DUP1 REVERT JUMPDEST PUSH1 0x0 SWAP2 DUP3 MSTORE PUSH1 0x20 SWAP1 SWAP2 KECCAK256 ADD SLOAD PUSH1 0x1 PUSH1 0x1 PUSH1 0xA0 SHL SUB AND SWAP1 POP DUP2 JUMP JUMPDEST PUSH1 0x0 PUSH1 0x2 DUP4 DUP2 SLOAD DUP2 LT PUSH3 0x2A3 JUMPI PUSH3 0x2A3 PUSH3 0x818 JUMP JUMPDEST PUSH1 0x0 SWAP2 DUP3 MSTORE PUSH1 0x20 DUP3 KECCAK256 ADD SLOAD PUSH1 0x1 PUSH1 0x1 PUSH1 0xA0 SHL SUB AND SWAP2 POP JUMPDEST DUP3 MLOAD DUP2 LT ISZERO PUSH3 0x366 JUMPI DUP2 PUSH1 0x1 PUSH1 0x1 PUSH1 0xA0 SHL SUB AND PUSH4 0xF4AB9ADF DUP5 DUP4 DUP2 MLOAD DUP2 LT PUSH3 0x2E8 JUMPI PUSH3 0x2E8 PUSH3 0x818 JUMP JUMPDEST PUSH1 0x20 MUL PUSH1 0x20 ADD ADD MLOAD PUSH1 0x40 MLOAD DUP3 PUSH4 0xFFFFFFFF AND PUSH1 0xE0 SHL DUP2 MSTORE PUSH1 0x4 ADD PUSH3 0x31C SWAP2 SWAP1 PUSH1 0x1 PUSH1 0x1 PUSH1 0xA0 SHL SUB SWAP2 SWAP1 SWAP2 AND DUP2 MSTORE PUSH1 0x20 ADD SWAP1 JUMP JUMPDEST PUSH1 0x0 PUSH1 0x40 MLOAD DUP1 DUP4 SUB DUP2 PUSH1 0x0 DUP8 DUP1 EXTCODESIZE ISZERO DUP1 ISZERO PUSH3 0x337 JUMPI PUSH1 0x0 DUP1 REVERT JUMPDEST POP GAS CALL ISZERO DUP1 ISZERO PUSH3 0x34C JUMPI RETURNDATASIZE PUSH1 0x0 DUP1 RETURNDATACOPY RETURNDATASIZE PUSH1 0x0 REVERT JUMPDEST POP POP POP POP DUP1 DUP1 PUSH3 0x35D SWAP1 PUSH3 0x8AE JUMP JUMPDEST SWAP2 POP POP PUSH3 0x2BA JUMP JUMPDEST POP POP POP POP JUMP JUMPDEST PUSH1 0x0 DUP1 PUSH1 0x2 DUP4 DUP2 SLOAD DUP2 LT PUSH3 0x385 JUMPI PUSH3 0x385 PUSH3 0x818 JUMP JUMPDEST PUSH1 0x0 SWAP2 DUP3 MSTORE PUSH1 0x20 SWAP2 DUP3 SWAP1 KECCAK256 ADD SLOAD PUSH1 0x40 DUP1 MLOAD PUSH4 0x904798BD PUSH1 0xE0 SHL DUP2 MSTORE SWAP1 MLOAD PUSH1 0x1 PUSH1 0x1 PUSH1 0xA0 SHL SUB SWAP1 SWAP3 AND SWAP4 POP DUP4 SWAP3 PUSH4 0x904798BD SWAP3 PUSH1 0x4 DUP1 DUP5 ADD SWAP4 DUP3 SWAP1 SUB ADD DUP2 DUP7 GAS STATICCALL ISZERO DUP1 ISZERO PUSH3 0x3D7 JUMPI RETURNDATASIZE PUSH1 0x0 DUP1 RETURNDATACOPY RETURNDATASIZE PUSH1 0x0 REVERT JUMPDEST POP POP POP POP PUSH1 0x40 MLOAD RETURNDATASIZE PUSH1 0x1F NOT PUSH1 0x1F DUP3 ADD AND DUP3 ADD DUP1 PUSH1 0x40 MSTORE POP DUP2 ADD SWAP1 PUSH3 0x259 SWAP2 SWAP1 PUSH3 0x8D6 JUMP JUMPDEST PUSH2 0xC0E DUP1 PUSH3 0x8F1 DUP4 CODECOPY ADD SWAP1 JUMP JUMPDEST PUSH4 0x4E487B71 PUSH1 0xE0 SHL PUSH1 0x0 MSTORE PUSH1 0x41 PUSH1 0x4 MSTORE PUSH1 0x24 PUSH1 0x0 REVERT JUMPDEST PUSH1 0x40 MLOAD PUSH1 0x1F DUP3 ADD PUSH1 0x1F NOT AND DUP2 ADD PUSH8 0xFFFFFFFFFFFFFFFF DUP2 GT DUP3 DUP3 LT OR ISZERO PUSH3 0x44D JUMPI PUSH3 0x44D PUSH3 0x40B JUMP JUMPDEST PUSH1 0x40 MSTORE SWAP2 SWAP1 POP JUMP JUMPDEST PUSH1 0x0 PUSH8 0xFFFFFFFFFFFFFFFF DUP3 GT ISZERO PUSH3 0x472 JUMPI PUSH3 0x472 PUSH3 0x40B JUMP JUMPDEST POP PUSH1 0x1F ADD PUSH1 0x1F NOT AND PUSH1 0x20 ADD SWAP1 JUMP JUMPDEST PUSH1 0x0 DUP3 PUSH1 0x1F DUP4 ADD SLT PUSH3 0x492 JUMPI PUSH1 0x0 DUP1 REVERT JUMPDEST DUP2 CALLDATALOAD PUSH3 0x4A9 PUSH3 0x4A3 DUP3 PUSH3 0x455 JUMP JUMPDEST PUSH3 0x421 JUMP JUMPDEST DUP2 DUP2 MSTORE DUP5 PUSH1 0x20 DUP4 DUP7 ADD ADD GT ISZERO PUSH3 0x4BF JUMPI PUSH1 0x0 DUP1 REVERT JUMPDEST DUP2 PUSH1 0x20 DUP6 ADD PUSH1 0x20 DUP4 ADD CALLDATACOPY PUSH1 0x0 SWAP2 DUP2 ADD PUSH1 0x20 ADD SWAP2 SWAP1 SWAP2 MSTORE SWAP4 SWAP3 POP POP POP JUMP JUMPDEST PUSH1 0x0 PUSH8 0xFFFFFFFFFFFFFFFF DUP3 GT ISZERO PUSH3 0x4F9 JUMPI PUSH3 0x4F9 PUSH3 0x40B JUMP JUMPDEST POP PUSH1 0x5 SHL PUSH1 0x20 ADD SWAP1 JUMP JUMPDEST PUSH1 0x0 DUP1 PUSH1 0x0 DUP1 PUSH1 0x80 DUP6 DUP8 SUB SLT ISZERO PUSH3 0x51A JUMPI PUSH1 0x0 DUP1 REVERT JUMPDEST DUP5 CALLDATALOAD PUSH8 0xFFFFFFFFFFFFFFFF DUP1 DUP3 GT ISZERO PUSH3 0x533 JUMPI PUSH1 0x0 DUP1 REVERT JUMPDEST PUSH3 0x541 DUP9 DUP4 DUP10 ADD PUSH3 0x480 JUMP JUMPDEST SWAP6 POP PUSH1 0x20 SWAP2 POP DUP2 DUP8 ADD CALLDATALOAD DUP2 DUP2 GT ISZERO PUSH3 0x559 JUMPI PUSH1 0x0 DUP1 REVERT JUMPDEST DUP8 ADD PUSH1 0x1F DUP2 ADD DUP10 SGT PUSH3 0x56B JUMPI PUSH1 0x0 DUP1 REVERT JUMPDEST DUP1 CALLDATALOAD PUSH3 0x57C PUSH3 0x4A3 DUP3 PUSH3 0x4DC JUMP JUMPDEST DUP2 DUP2 MSTORE PUSH1 0x5 SWAP2 SWAP1 SWAP2 SHL DUP3 ADD DUP5 ADD SWAP1 DUP5 DUP2 ADD SWAP1 DUP12 DUP4 GT ISZERO PUSH3 0x59C JUMPI PUSH1 0x0 DUP1 REVERT JUMPDEST DUP6 DUP5 ADD JUMPDEST DUP4 DUP2 LT ISZERO PUSH3 0x5D9 JUMPI DUP1 CALLDATALOAD DUP7 DUP2 GT ISZERO PUSH3 0x5BA JUMPI PUSH1 0x0 DUP1 DUP2 REVERT JUMPDEST PUSH3 0x5CA DUP15 DUP10 DUP4 DUP10 ADD ADD PUSH3 0x480 JUMP JUMPDEST DUP5 MSTORE POP SWAP2 DUP7 ADD SWAP2 DUP7 ADD PUSH3 0x5A0 JUMP JUMPDEST POP SWAP8 POP POP POP POP PUSH1 0x40 DUP8 ADD CALLDATALOAD SWAP2 POP DUP1 DUP3 GT ISZERO PUSH3 0x5F4 JUMPI PUSH1 0x0 DUP1 REVERT JUMPDEST PUSH3 0x602 DUP9 DUP4 DUP10 ADD PUSH3 0x480 JUMP JUMPDEST SWAP4 POP PUSH1 0x60 DUP8 ADD CALLDATALOAD SWAP2 POP DUP1 DUP3 GT ISZERO PUSH3 0x619 JUMPI PUSH1 0x0 DUP1 REVERT JUMPDEST POP PUSH3 0x628 DUP8 DUP3 DUP9 ADD PUSH3 0x480 JUMP JUMPDEST SWAP2 POP POP SWAP3 SWAP6 SWAP2 SWAP5 POP SWAP3 POP JUMP JUMPDEST PUSH1 0x0 PUSH1 0x20 DUP3 DUP5 SUB SLT ISZERO PUSH3 0x647 JUMPI PUSH1 0x0 DUP1 REVERT JUMPDEST POP CALLDATALOAD SWAP2 SWAP1 POP JUMP JUMPDEST PUSH1 0x0 JUMPDEST DUP4 DUP2 LT ISZERO PUSH3 0x66B JUMPI DUP2 DUP2 ADD MLOAD DUP4 DUP3 ADD MSTORE PUSH1 0x20 ADD PUSH3 0x651 JUMP JUMPDEST POP POP PUSH1 0x0 SWAP2 ADD MSTORE JUMP JUMPDEST PUSH1 0x0 DUP2 MLOAD DUP1 DUP5 MSTORE PUSH3 0x68E DUP2 PUSH1 0x20 DUP7 ADD PUSH1 0x20 DUP7 ADD PUSH3 0x64E JUMP JUMPDEST PUSH1 0x1F ADD PUSH1 0x1F NOT AND SWAP3 SWAP1 SWAP3 ADD PUSH1 0x20 ADD SWAP3 SWAP2 POP POP JUMP JUMPDEST PUSH1 0x20 DUP2 MSTORE PUSH1 0x0 PUSH3 0x259 PUSH1 0x20 DUP4 ADD DUP5 PUSH3 0x674 JUMP JUMPDEST PUSH1 0x0 DUP1 PUSH1 0x40 DUP4 DUP6 SUB SLT ISZERO PUSH3 0x6CB JUMPI PUSH1 0x0 DUP1 REVERT JUMPDEST DUP3 CALLDATALOAD SWAP2 POP PUSH1 0x20 DUP1 DUP5 ADD CALLDATALOAD PUSH8 0xFFFFFFFFFFFFFFFF DUP2 GT ISZERO PUSH3 0x6EB JUMPI PUSH1 0x0 DUP1 REVERT JUMPDEST DUP5 ADD PUSH1 0x1F DUP2 ADD DUP7 SGT PUSH3 0x6FD JUMPI PUSH1 0x0 DUP1 REVERT JUMPDEST DUP1 CALLDATALOAD PUSH3 0x70E PUSH3 0x4A3 DUP3 PUSH3 0x4DC JUMP JUMPDEST DUP2 DUP2 MSTORE PUSH1 0x5 SWAP2 SWAP1 SWAP2 SHL DUP3 ADD DUP4 ADD SWAP1 DUP4 DUP2 ADD SWAP1 DUP9 DUP4 GT ISZERO PUSH3 0x72E JUMPI PUSH1 0x0 DUP1 REVERT JUMPDEST SWAP3 DUP5 ADD SWAP3 JUMPDEST DUP3 DUP5 LT ISZERO PUSH3 0x765 JUMPI DUP4 CALLDATALOAD PUSH1 0x1 PUSH1 0x1 PUSH1 0xA0 SHL SUB DUP2 AND DUP2 EQ PUSH3 0x755 JUMPI PUSH1 0x0 DUP1 DUP2 REVERT JUMPDEST DUP3 MSTORE SWAP3 DUP5 ADD SWAP3 SWAP1 DUP5 ADD SWAP1 PUSH3 0x733 JUMP JUMPDEST DUP1 SWAP6 POP POP POP POP POP POP SWAP3 POP SWAP3 SWAP1 POP JUMP JUMPDEST PUSH1 0x80 DUP2 MSTORE PUSH1 0x0 PUSH3 0x789 PUSH1 0x80 DUP4 ADD DUP8 PUSH3 0x674 JUMP JUMPDEST PUSH1 0x20 DUP4 DUP3 SUB DUP2 DUP6 ADD MSTORE DUP2 DUP8 MLOAD DUP1 DUP5 MSTORE DUP3 DUP5 ADD SWAP2 POP DUP3 DUP2 PUSH1 0x5 SHL DUP6 ADD ADD DUP4 DUP11 ADD PUSH1 0x0 JUMPDEST DUP4 DUP2 LT ISZERO PUSH3 0x7DD JUMPI PUSH1 0x1F NOT DUP8 DUP5 SUB ADD DUP6 MSTORE PUSH3 0x7CA DUP4 DUP4 MLOAD PUSH3 0x674 JUMP JUMPDEST SWAP5 DUP7 ADD SWAP5 SWAP3 POP SWAP1 DUP6 ADD SWAP1 PUSH1 0x1 ADD PUSH3 0x7AB JUMP JUMPDEST POP POP DUP7 DUP2 SUB PUSH1 0x40 DUP9 ADD MSTORE PUSH3 0x7F3 DUP2 DUP11 PUSH3 0x674 JUMP JUMPDEST SWAP5 POP POP POP POP POP DUP3 DUP2 SUB PUSH1 0x60 DUP5 ADD MSTORE PUSH3 0x80D DUP2 DUP6 PUSH3 0x674 JUMP JUMPDEST SWAP8 SWAP7 POP POP POP POP POP POP POP JUMP JUMPDEST PUSH4 0x4E487B71 PUSH1 0xE0 SHL PUSH1 0x0 MSTORE PUSH1 0x32 PUSH1 0x4 MSTORE PUSH1 0x24 PUSH1 0x0 REVERT JUMPDEST PUSH1 0x0 PUSH1 0x20 DUP3 DUP5 SUB SLT ISZERO PUSH3 0x841 JUMPI PUSH1 0x0 DUP1 REVERT JUMPDEST DUP2 MLOAD PUSH8 0xFFFFFFFFFFFFFFFF DUP2 GT ISZERO PUSH3 0x859 JUMPI PUSH1 0x0 DUP1 REVERT JUMPDEST DUP3 ADD PUSH1 0x1F DUP2 ADD DUP5 SGT PUSH3 0x86B JUMPI PUSH1 0x0 DUP1 REVERT JUMPDEST DUP1 MLOAD PUSH3 0x87C PUSH3 0x4A3 DUP3 PUSH3 0x455 JUMP JUMPDEST DUP2 DUP2 MSTORE DUP6 PUSH1 0x20 DUP4 DUP6 ADD ADD GT ISZERO PUSH3 0x892 JUMPI PUSH1 0x0 DUP1 REVERT JUMPDEST PUSH3 0x8A5 DUP3 PUSH1 0x20 DUP4 ADD PUSH1 0x20 DUP7 ADD PUSH3 0x64E JUMP JUMPDEST SWAP6 SWAP5 POP POP POP POP POP JUMP JUMPDEST PUSH1 0x0 PUSH1 0x1 DUP3 ADD PUSH3 0x8CF JUMPI PUSH4 0x4E487B71 PUSH1 0xE0 SHL PUSH1 0x0 MSTORE PUSH1 0x11 PUSH1 0x4 MSTORE PUSH1 0x24 PUSH1 0x0 REVERT JUMPDEST POP PUSH1 0x1 ADD SWAP1 JUMP JUMPDEST PUSH1 0x0 PUSH1 0x20 DUP3 DUP5 SUB SLT ISZERO PUSH3 0x8E9 JUMPI PUSH1 0x0 DUP1 REVERT JUMPDEST POP MLOAD SWAP2 SWAP1 POP JUMP INVALID PUSH1 0x80 PUSH1 0x40 MSTORE CALLVALUE DUP1 ISZERO PUSH3 0x11 JUMPI PUSH1 0x0 DUP1 REVERT JUMPDEST POP PUSH1 0x40 MLOAD PUSH3 0xC0E CODESIZE SUB DUP1 PUSH3 0xC0E DUP4 CODECOPY DUP2 ADD PUSH1 0x40 DUP2 SWAP1 MSTORE PUSH3 0x34 SWAP2 PUSH3 0x1EB JUMP JUMPDEST PUSH1 0x0 PUSH3 0x42 DUP6 DUP3 PUSH3 0x3C0 JUMP JUMPDEST POP TIMESTAMP PUSH1 0x1 DUP2 SWAP1 SSTORE PUSH1 0x2 DUP2 SWAP1 SSTORE PUSH3 0x5D SWAP1 PUSH3 0x15180 PUSH3 0x4A2 JUMP JUMPDEST PUSH1 0x3 SSTORE PUSH1 0x4 PUSH3 0x6E DUP4 DUP3 PUSH3 0x3C0 JUMP JUMPDEST POP PUSH1 0x5 PUSH3 0x7D DUP3 DUP3 PUSH3 0x3C0 JUMP JUMPDEST POP PUSH1 0x0 JUMPDEST DUP4 MLOAD DUP2 LT ISZERO PUSH3 0x10A JUMPI PUSH1 0x6 PUSH1 0x40 MLOAD DUP1 PUSH1 0x40 ADD PUSH1 0x40 MSTORE DUP1 DUP7 DUP5 DUP2 MLOAD DUP2 LT PUSH3 0xAD JUMPI PUSH3 0xAD PUSH3 0x4BE JUMP JUMPDEST PUSH1 0x20 SWAP1 DUP2 MUL SWAP2 SWAP1 SWAP2 ADD DUP2 ADD MLOAD DUP3 MSTORE PUSH1 0x0 SWAP2 DUP2 ADD DUP3 SWAP1 MSTORE DUP4 SLOAD PUSH1 0x1 DUP2 ADD DUP6 SSTORE SWAP4 DUP3 MSTORE SWAP1 KECCAK256 DUP2 MLOAD SWAP2 SWAP3 PUSH1 0x2 MUL ADD SWAP1 DUP2 SWAP1 PUSH3 0xE7 SWAP1 DUP3 PUSH3 0x3C0 JUMP JUMPDEST POP PUSH1 0x20 DUP3 ADD MLOAD DUP2 PUSH1 0x1 ADD SSTORE POP POP DUP1 DUP1 PUSH3 0x101 SWAP1 PUSH3 0x4D4 JUMP JUMPDEST SWAP2 POP POP PUSH3 0x81 JUMP JUMPDEST POP POP POP POP POP PUSH3 0x4F0 JUMP JUMPDEST PUSH4 0x4E487B71 PUSH1 0xE0 SHL PUSH1 0x0 MSTORE PUSH1 0x41 PUSH1 0x4 MSTORE PUSH1 0x24 PUSH1 0x0 REVERT JUMPDEST PUSH1 0x40 MLOAD PUSH1 0x1F DUP3 ADD PUSH1 0x1F NOT AND DUP2 ADD PUSH1 0x1 PUSH1 0x1 PUSH1 0x40 SHL SUB DUP2 GT DUP3 DUP3 LT OR ISZERO PUSH3 0x156 JUMPI PUSH3 0x156 PUSH3 0x115 JUMP JUMPDEST PUSH1 0x40 MSTORE SWAP2 SWAP1 POP JUMP JUMPDEST PUSH1 0x0 DUP3 PUSH1 0x1F DUP4 ADD SLT PUSH3 0x170 JUMPI PUSH1 0x0 DUP1 REVERT JUMPDEST DUP2 MLOAD PUSH1 0x1 PUSH1 0x1 PUSH1 0x40 SHL SUB DUP2 GT ISZERO PUSH3 0x18C JUMPI PUSH3 0x18C PUSH3 0x115 JUMP JUMPDEST PUSH1 0x20 PUSH3 0x1A2 PUSH1 0x1F DUP4 ADD PUSH1 0x1F NOT AND DUP3 ADD PUSH3 0x12B JUMP JUMPDEST DUP3 DUP2 MSTORE DUP6 DUP3 DUP5 DUP8 ADD ADD GT ISZERO PUSH3 0x1B7 JUMPI PUSH1 0x0 DUP1 REVERT JUMPDEST PUSH1 0x0 JUMPDEST DUP4 DUP2 LT ISZERO PUSH3 0x1D7 JUMPI DUP6 DUP2 ADD DUP4 ADD MLOAD DUP3 DUP3 ADD DUP5 ADD MSTORE DUP3 ADD PUSH3 0x1BA JUMP JUMPDEST POP PUSH1 0x0 SWAP3 DUP2 ADD SWAP1 SWAP2 ADD SWAP2 SWAP1 SWAP2 MSTORE SWAP4 SWAP3 POP POP POP JUMP JUMPDEST PUSH1 0x0 DUP1 PUSH1 0x0 DUP1 PUSH1 0x80 DUP6 DUP8 SUB SLT ISZERO PUSH3 0x202 JUMPI PUSH1 0x0 DUP1 REVERT JUMPDEST DUP5 MLOAD PUSH1 0x1 PUSH1 0x1 PUSH1 0x40 SHL SUB DUP1 DUP3 GT ISZERO PUSH3 0x21A JUMPI PUSH1 0x0 DUP1 REVERT JUMPDEST PUSH3 0x228 DUP9 DUP4 DUP10 ADD PUSH3 0x15E JUMP JUMPDEST SWAP6 POP PUSH1 0x20 SWAP2 POP DUP2 DUP8 ADD MLOAD DUP2 DUP2 GT ISZERO PUSH3 0x240 JUMPI PUSH1 0x0 DUP1 REVERT JUMPDEST DUP8 ADD PUSH1 0x1F DUP2 ADD DUP10 SGT PUSH3 0x252 JUMPI PUSH1 0x0 DUP1 REVERT JUMPDEST DUP1 MLOAD DUP3 DUP2 GT ISZERO PUSH3 0x267 JUMPI PUSH3 0x267 PUSH3 0x115 JUMP JUMPDEST DUP1 PUSH1 0x5 SHL PUSH3 0x278 DUP6 DUP3 ADD PUSH3 0x12B JUMP JUMPDEST SWAP2 DUP3 MSTORE DUP3 DUP2 ADD DUP6 ADD SWAP2 DUP6 DUP2 ADD SWAP1 DUP13 DUP5 GT ISZERO PUSH3 0x293 JUMPI PUSH1 0x0 DUP1 REVERT JUMPDEST DUP7 DUP6 ADD SWAP3 POP JUMPDEST DUP4 DUP4 LT ISZERO PUSH3 0x2D4 JUMPI DUP3 MLOAD DUP7 DUP2 GT ISZERO PUSH3 0x2B3 JUMPI PUSH1 0x0 DUP1 DUP2 REVERT JUMPDEST PUSH3 0x2C3 DUP15 DUP10 DUP4 DUP10 ADD ADD PUSH3 0x15E JUMP JUMPDEST DUP4 MSTORE POP SWAP2 DUP7 ADD SWAP2 SWAP1 DUP7 ADD SWAP1 PUSH3 0x299 JUMP JUMPDEST DUP1 SWAP10 POP POP POP POP POP POP PUSH1 0x40 DUP8 ADD MLOAD SWAP2 POP DUP1 DUP3 GT ISZERO PUSH3 0x2F1 JUMPI PUSH1 0x0 DUP1 REVERT JUMPDEST PUSH3 0x2FF DUP9 DUP4 DUP10 ADD PUSH3 0x15E JUMP JUMPDEST SWAP4 POP PUSH1 0x60 DUP8 ADD MLOAD SWAP2 POP DUP1 DUP3 GT ISZERO PUSH3 0x316 JUMPI PUSH1 0x0 DUP1 REVERT JUMPDEST POP PUSH3 0x325 DUP8 DUP3 DUP9 ADD PUSH3 0x15E JUMP JUMPDEST SWAP2 POP POP SWAP3 SWAP6 SWAP2 SWAP5 POP SWAP3 POP JUMP JUMPDEST PUSH1 0x1 DUP2 DUP2 SHR SWAP1 DUP3 AND DUP1 PUSH3 0x346 JUMPI PUSH1 0x7F DUP3 AND SWAP2 POP JUMPDEST PUSH1 0x20 DUP3 LT DUP2 SUB PUSH3 0x367 JUMPI PUSH4 0x4E487B71 PUSH1 0xE0 SHL PUSH1 0x0 MSTORE PUSH1 0x22 PUSH1 0x4 MSTORE PUSH1 0x24 PUSH1 0x0 REVERT JUMPDEST POP SWAP2 SWAP1 POP JUMP JUMPDEST PUSH1 0x1F DUP3 GT ISZERO PUSH3 0x3BB JUMPI PUSH1 0x0 DUP2 DUP2 MSTORE PUSH1 0x20 DUP2 KECCAK256 PUSH1 0x1F DUP6 ADD PUSH1 0x5 SHR DUP2 ADD PUSH1 0x20 DUP7 LT ISZERO PUSH3 0x396 JUMPI POP DUP1 JUMPDEST PUSH1 0x1F DUP6 ADD PUSH1 0x5 SHR DUP3 ADD SWAP2 POP JUMPDEST DUP2 DUP2 LT ISZERO PUSH3 0x3B7 JUMPI DUP3 DUP2 SSTORE PUSH1 0x1 ADD PUSH3 0x3A2 JUMP JUMPDEST POP POP POP JUMPDEST POP POP POP JUMP JUMPDEST DUP2 MLOAD PUSH1 0x1 PUSH1 0x1 PUSH1 0x40 SHL SUB DUP2 GT ISZERO PUSH3 0x3DC JUMPI PUSH3 0x3DC PUSH3 0x115 JUMP JUMPDEST PUSH3 0x3F4 DUP2 PUSH3 0x3ED DUP5 SLOAD PUSH3 0x331 JUMP JUMPDEST DUP5 PUSH3 0x36D JUMP JUMPDEST PUSH1 0x20 DUP1 PUSH1 0x1F DUP4 GT PUSH1 0x1 DUP2 EQ PUSH3 0x42C JUMPI PUSH1 0x0 DUP5 ISZERO PUSH3 0x413 JUMPI POP DUP6 DUP4 ADD MLOAD JUMPDEST PUSH1 0x0 NOT PUSH1 0x3 DUP7 SWAP1 SHL SHR NOT AND PUSH1 0x1 DUP6 SWAP1 SHL OR DUP6 SSTORE PUSH3 0x3B7 JUMP JUMPDEST PUSH1 0x0 DUP6 DUP2 MSTORE PUSH1 0x20 DUP2 KECCAK256 PUSH1 0x1F NOT DUP7 AND SWAP2 JUMPDEST DUP3 DUP2 LT ISZERO PUSH3 0x45D JUMPI DUP9 DUP7 ADD MLOAD DUP3 SSTORE SWAP5 DUP5 ADD SWAP5 PUSH1 0x1 SWAP1 SWAP2 ADD SWAP1 DUP5 ADD PUSH3 0x43C JUMP JUMPDEST POP DUP6 DUP3 LT ISZERO PUSH3 0x47C JUMPI DUP8 DUP6 ADD MLOAD PUSH1 0x0 NOT PUSH1 0x3 DUP9 SWAP1 SHL PUSH1 0xF8 AND SHR NOT AND DUP2 SSTORE JUMPDEST POP POP POP POP POP PUSH1 0x1 SWAP1 DUP2 SHL ADD SWAP1 SSTORE POP JUMP JUMPDEST PUSH4 0x4E487B71 PUSH1 0xE0 SHL PUSH1 0x0 MSTORE PUSH1 0x11 PUSH1 0x4 MSTORE PUSH1 0x24 PUSH1 0x0 REVERT JUMPDEST DUP1 DUP3 ADD DUP1 DUP3 GT ISZERO PUSH3 0x4B8 JUMPI PUSH3 0x4B8 PUSH3 0x48C JUMP JUMPDEST SWAP3 SWAP2 POP POP JUMP JUMPDEST PUSH4 0x4E487B71 PUSH1 0xE0 SHL PUSH1 0x0 MSTORE PUSH1 0x32 PUSH1 0x4 MSTORE PUSH1 0x24 PUSH1 0x0 REVERT JUMPDEST PUSH1 0x0 PUSH1 0x1 DUP3 ADD PUSH3 0x4E9 JUMPI PUSH3 0x4E9 PUSH3 0x48C JUMP JUMPDEST POP PUSH1 0x1 ADD SWAP1 JUMP JUMPDEST PUSH2 0x70E DUP1 PUSH3 0x500 PUSH1 0x0 CODECOPY PUSH1 0x0 RETURN INVALID PUSH1 0x80 PUSH1 0x40 MSTORE CALLVALUE DUP1 ISZERO PUSH2 0x10 JUMPI PUSH1 0x0 DUP1 REVERT JUMPDEST POP PUSH1 0x4 CALLDATASIZE LT PUSH2 0xA9 JUMPI PUSH1 0x0 CALLDATALOAD PUSH1 0xE0 SHR DUP1 PUSH4 0x609FF1BD GT PUSH2 0x71 JUMPI DUP1 PUSH4 0x609FF1BD EQ PUSH2 0x112 JUMPI DUP1 PUSH4 0x904798BD EQ PUSH2 0x128 JUMPI DUP1 PUSH4 0xA0F2C291 EQ PUSH2 0x130 JUMPI DUP1 PUSH4 0xA3EC138D EQ PUSH2 0x138 JUMPI DUP1 PUSH4 0xBC378A73 EQ PUSH2 0x185 JUMPI DUP1 PUSH4 0xF4AB9ADF EQ PUSH2 0x18D JUMPI PUSH1 0x0 DUP1 REVERT JUMPDEST DUP1 PUSH4 0x121B93F EQ PUSH2 0xAE JUMPI DUP1 PUSH4 0x13CF08B EQ PUSH2 0xC3 JUMPI DUP1 PUSH4 0x1BCE8B4F EQ PUSH2 0xED JUMPI DUP1 PUSH4 0x1C4695F4 EQ PUSH2 0x102 JUMPI DUP1 PUSH4 0x3FAD9AE0 EQ PUSH2 0x10A JUMPI JUMPDEST PUSH1 0x0 DUP1 REVERT JUMPDEST PUSH2 0xC1 PUSH2 0xBC CALLDATASIZE PUSH1 0x4 PUSH2 0x57C JUMP JUMPDEST PUSH2 0x1F3 JUMP JUMPDEST STOP JUMPDEST PUSH2 0xD6 PUSH2 0xD1 CALLDATASIZE PUSH1 0x4 PUSH2 0x57C JUMP JUMPDEST PUSH2 0x2E0 JUMP JUMPDEST PUSH1 0x40 MLOAD PUSH2 0xE4 SWAP3 SWAP2 SWAP1 PUSH2 0x5DB JUMP JUMPDEST PUSH1 0x40 MLOAD DUP1 SWAP2 SUB SWAP1 RETURN JUMPDEST PUSH2 0xF5 PUSH2 0x39C JUMP JUMPDEST PUSH1 0x40 MLOAD PUSH2 0xE4 SWAP2 SWAP1 PUSH2 0x5FD JUMP JUMPDEST PUSH2 0xF5 PUSH2 0x42A JUMP JUMPDEST PUSH2 0xF5 PUSH2 0x437 JUMP JUMPDEST PUSH2 0x11A PUSH2 0x444 JUMP JUMPDEST PUSH1 0x40 MLOAD SWAP1 DUP2 MSTORE PUSH1 0x20 ADD PUSH2 0xE4 JUMP JUMPDEST PUSH1 0x3 SLOAD PUSH2 0x11A JUMP JUMPDEST PUSH2 0xF5 PUSH2 0x4C1 JUMP JUMPDEST PUSH2 0x16A PUSH2 0x146 CALLDATASIZE PUSH1 0x4 PUSH2 0x617 JUMP JUMPDEST PUSH1 0x7 PUSH1 0x20 MSTORE PUSH1 0x0 SWAP1 DUP2 MSTORE PUSH1 0x40 SWAP1 KECCAK256 DUP1 SLOAD PUSH1 0x1 DUP3 ADD SLOAD PUSH1 0x2 SWAP1 SWAP3 ADD SLOAD SWAP1 SWAP2 PUSH1 0xFF AND SWAP1 DUP4 JUMP JUMPDEST PUSH1 0x40 DUP1 MLOAD SWAP4 DUP5 MSTORE SWAP2 ISZERO ISZERO PUSH1 0x20 DUP5 ADD MSTORE SWAP1 DUP3 ADD MSTORE PUSH1 0x60 ADD PUSH2 0xE4 JUMP JUMPDEST PUSH1 0x6 SLOAD PUSH2 0x11A JUMP JUMPDEST PUSH2 0xC1 PUSH2 0x19B CALLDATASIZE PUSH1 0x4 PUSH2 0x617 JUMP JUMPDEST PUSH1 0x40 DUP1 MLOAD PUSH1 0x60 DUP2 ADD DUP3 MSTORE PUSH1 0x1 DUP1 DUP3 MSTORE PUSH1 0x0 PUSH1 0x20 DUP1 DUP5 ADD DUP3 DUP2 MSTORE DUP5 DUP7 ADD DUP4 DUP2 MSTORE PUSH1 0x1 PUSH1 0x1 PUSH1 0xA0 SHL SUB SWAP8 SWAP1 SWAP8 AND DUP4 MSTORE PUSH1 0x7 SWAP1 SWAP2 MSTORE SWAP4 SWAP1 KECCAK256 SWAP2 MLOAD DUP3 SSTORE SWAP2 MLOAD SWAP2 DUP2 ADD DUP1 SLOAD PUSH1 0xFF NOT AND SWAP3 ISZERO ISZERO SWAP3 SWAP1 SWAP3 OR SWAP1 SWAP2 SSTORE SWAP1 MLOAD PUSH1 0x2 SWAP1 SWAP2 ADD SSTORE JUMP JUMPDEST PUSH1 0x3 SLOAD TIMESTAMP LT PUSH2 0x201 JUMPI PUSH1 0x0 DUP1 REVERT JUMPDEST CALLER PUSH1 0x0 SWAP1 DUP2 MSTORE PUSH1 0x7 PUSH1 0x20 MSTORE PUSH1 0x40 SWAP1 KECCAK256 SLOAD PUSH2 0x27A JUMPI PUSH1 0x40 MLOAD PUSH3 0x461BCD PUSH1 0xE5 SHL DUP2 MSTORE PUSH1 0x20 PUSH1 0x4 DUP3 ADD MSTORE PUSH1 0x30 PUSH1 0x24 DUP3 ADD MSTORE PUSH32 0x43657474652061646472657373206E27612070617320617373657A2064652057 PUSH1 0x44 DUP3 ADD MSTORE PUSH16 0x32B4B3B43A103837BAB9103B37BA32B9 PUSH1 0x81 SHL PUSH1 0x64 DUP3 ADD MSTORE PUSH1 0x84 ADD PUSH1 0x40 MLOAD DUP1 SWAP2 SUB SWAP1 REVERT JUMPDEST PUSH1 0x1 PUSH1 0x6 DUP3 DUP2 SLOAD DUP2 LT PUSH2 0x28F JUMPI PUSH2 0x28F PUSH2 0x640 JUMP JUMPDEST SWAP1 PUSH1 0x0 MSTORE PUSH1 0x20 PUSH1 0x0 KECCAK256 SWAP1 PUSH1 0x2 MUL ADD PUSH1 0x1 ADD PUSH1 0x0 DUP3 DUP3 SLOAD PUSH2 0x2AF SWAP2 SWAP1 PUSH2 0x66C JUMP JUMPDEST SWAP1 SWAP2 SSTORE POP POP CALLER PUSH1 0x0 SWAP1 DUP2 MSTORE PUSH1 0x7 PUSH1 0x20 MSTORE PUSH1 0x40 DUP2 KECCAK256 SWAP1 DUP2 SSTORE PUSH1 0x2 DUP2 ADD SWAP2 SWAP1 SWAP2 SSTORE PUSH1 0x1 SWAP1 DUP2 ADD DUP1 SLOAD PUSH1 0xFF NOT AND SWAP1 SWAP2 OR SWAP1 SSTORE JUMP JUMPDEST PUSH1 0x6 DUP2 DUP2 SLOAD DUP2 LT PUSH2 0x2F0 JUMPI PUSH1 0x0 DUP1 REVERT JUMPDEST SWAP1 PUSH1 0x0 MSTORE PUSH1 0x20 PUSH1 0x0 KECCAK256 SWAP1 PUSH1 0x2 MUL ADD PUSH1 0x0 SWAP2 POP SWAP1 POP DUP1 PUSH1 0x0 ADD DUP1 SLOAD PUSH2 0x313 SWAP1 PUSH2 0x685 JUMP JUMPDEST DUP1 PUSH1 0x1F ADD PUSH1 0x20 DUP1 SWAP2 DIV MUL PUSH1 0x20 ADD PUSH1 0x40 MLOAD SWAP1 DUP2 ADD PUSH1 0x40 MSTORE DUP1 SWAP3 SWAP2 SWAP1 DUP2 DUP2 MSTORE PUSH1 0x20 ADD DUP3 DUP1 SLOAD PUSH2 0x33F SWAP1 PUSH2 0x685 JUMP JUMPDEST DUP1 ISZERO PUSH2 0x38C JUMPI DUP1 PUSH1 0x1F LT PUSH2 0x361 JUMPI PUSH2 0x100 DUP1 DUP4 SLOAD DIV MUL DUP4 MSTORE SWAP2 PUSH1 0x20 ADD SWAP2 PUSH2 0x38C JUMP JUMPDEST DUP3 ADD SWAP2 SWAP1 PUSH1 0x0 MSTORE PUSH1 0x20 PUSH1 0x0 KECCAK256 SWAP1 JUMPDEST DUP2 SLOAD DUP2 MSTORE SWAP1 PUSH1 0x1 ADD SWAP1 PUSH1 0x20 ADD DUP1 DUP4 GT PUSH2 0x36F JUMPI DUP3 SWAP1 SUB PUSH1 0x1F AND DUP3 ADD SWAP2 JUMPDEST POP POP POP POP POP SWAP1 DUP1 PUSH1 0x1 ADD SLOAD SWAP1 POP DUP3 JUMP JUMPDEST PUSH1 0x4 DUP1 SLOAD PUSH2 0x3A9 SWAP1 PUSH2 0x685 JUMP JUMPDEST DUP1 PUSH1 0x1F ADD PUSH1 0x20 DUP1 SWAP2 DIV MUL PUSH1 0x20 ADD PUSH1 0x40 MLOAD SWAP1 DUP2 ADD PUSH1 0x40 MSTORE DUP1 SWAP3 SWAP2 SWAP1 DUP2 DUP2 MSTORE PUSH1 0x20 ADD DUP3 DUP1 SLOAD PUSH2 0x3D5 SWAP1 PUSH2 0x685 JUMP JUMPDEST DUP1 ISZERO PUSH2 0x422 JUMPI DUP1 PUSH1 0x1F LT PUSH2 0x3F7 JUMPI PUSH2 0x100 DUP1 DUP4 SLOAD DIV MUL DUP4 MSTORE SWAP2 PUSH1 0x20 ADD SWAP2 PUSH2 0x422 JUMP JUMPDEST DUP3 ADD SWAP2 SWAP1 PUSH1 0x0 MSTORE PUSH1 0x20 PUSH1 0x0 KECCAK256 SWAP1 JUMPDEST DUP2 SLOAD DUP2 MSTORE SWAP1 PUSH1 0x1 ADD SWAP1 PUSH1 0x20 ADD DUP1 DUP4 GT PUSH2 0x405 JUMPI DUP3 SWAP1 SUB PUSH1 0x1F AND DUP3 ADD SWAP2 JUMPDEST POP POP POP POP POP DUP2 JUMP JUMPDEST PUSH1 0x5 DUP1 SLOAD PUSH2 0x3A9 SWAP1 PUSH2 0x685 JUMP JUMPDEST PUSH1 0x0 DUP1 SLOAD PUSH2 0x3A9 SWAP1 PUSH2 0x685 JUMP JUMPDEST PUSH1 0x0 DUP1 DUP1 JUMPDEST PUSH1 0x6 SLOAD DUP2 LT ISZERO PUSH2 0x4BC JUMPI DUP2 PUSH1 0x6 DUP3 DUP2 SLOAD DUP2 LT PUSH2 0x467 JUMPI PUSH2 0x467 PUSH2 0x640 JUMP JUMPDEST SWAP1 PUSH1 0x0 MSTORE PUSH1 0x20 PUSH1 0x0 KECCAK256 SWAP1 PUSH1 0x2 MUL ADD PUSH1 0x1 ADD SLOAD GT ISZERO PUSH2 0x4AA JUMPI PUSH1 0x6 DUP2 DUP2 SLOAD DUP2 LT PUSH2 0x492 JUMPI PUSH2 0x492 PUSH2 0x640 JUMP JUMPDEST SWAP1 PUSH1 0x0 MSTORE PUSH1 0x20 PUSH1 0x0 KECCAK256 SWAP1 PUSH1 0x2 MUL ADD PUSH1 0x1 ADD SLOAD SWAP2 POP DUP1 SWAP3 POP JUMPDEST DUP1 PUSH2 0x4B4 DUP2 PUSH2 0x6BF JUMP JUMPDEST SWAP2 POP POP PUSH2 0x449 JUMP JUMPDEST POP POP SWAP1 JUMP JUMPDEST PUSH1 0x60 PUSH1 0x6 PUSH2 0x4CD PUSH2 0x444 JUMP JUMPDEST DUP2 SLOAD DUP2 LT PUSH2 0x4DD JUMPI PUSH2 0x4DD PUSH2 0x640 JUMP JUMPDEST SWAP1 PUSH1 0x0 MSTORE PUSH1 0x20 PUSH1 0x0 KECCAK256 SWAP1 PUSH1 0x2 MUL ADD PUSH1 0x0 ADD DUP1 SLOAD PUSH2 0x4F9 SWAP1 PUSH2 0x685 JUMP JUMPDEST DUP1 PUSH1 0x1F ADD PUSH1 0x20 DUP1 SWAP2 DIV MUL PUSH1 0x20 ADD PUSH1 0x40 MLOAD SWAP1 DUP2 ADD PUSH1 0x40 MSTORE DUP1 SWAP3 SWAP2 SWAP1 DUP2 DUP2 MSTORE PUSH1 0x20 ADD DUP3 DUP1 SLOAD PUSH2 0x525 SWAP1 PUSH2 0x685 JUMP JUMPDEST DUP1 ISZERO PUSH2 0x572 JUMPI DUP1 PUSH1 0x1F LT PUSH2 0x547 JUMPI PUSH2 0x100 DUP1 DUP4 SLOAD DIV MUL DUP4 MSTORE SWAP2 PUSH1 0x20 ADD SWAP2 PUSH2 0x572 JUMP JUMPDEST DUP3 ADD SWAP2 SWAP1 PUSH1 0x0 MSTORE PUSH1 0x20 PUSH1 0x0 KECCAK256 SWAP1 JUMPDEST DUP2 SLOAD DUP2 MSTORE SWAP1 PUSH1 0x1 ADD SWAP1 PUSH1 0x20 ADD DUP1 DUP4 GT PUSH2 0x555 JUMPI DUP3 SWAP1 SUB PUSH1 0x1F AND DUP3 ADD SWAP2 JUMPDEST POP POP POP POP POP SWAP1 POP SWAP1 JUMP JUMPDEST PUSH1 0x0 PUSH1 0x20 DUP3 DUP5 SUB SLT ISZERO PUSH2 0x58E JUMPI PUSH1 0x0 DUP1 REVERT JUMPDEST POP CALLDATALOAD SWAP2 SWAP1 POP JUMP JUMPDEST PUSH1 0x0 DUP2 MLOAD DUP1 DUP5 MSTORE PUSH1 0x0 JUMPDEST DUP2 DUP2 LT ISZERO PUSH2 0x5BB JUMPI PUSH1 0x20 DUP2 DUP6 ADD DUP2 ADD MLOAD DUP7 DUP4 ADD DUP3 ADD MSTORE ADD PUSH2 0x59F JUMP JUMPDEST POP PUSH1 0x0 PUSH1 0x20 DUP3 DUP7 ADD ADD MSTORE PUSH1 0x20 PUSH1 0x1F NOT PUSH1 0x1F DUP4 ADD AND DUP6 ADD ADD SWAP2 POP POP SWAP3 SWAP2 POP POP JUMP JUMPDEST PUSH1 0x40 DUP2 MSTORE PUSH1 0x0 PUSH2 0x5EE PUSH1 0x40 DUP4 ADD DUP6 PUSH2 0x595 JUMP JUMPDEST SWAP1 POP DUP3 PUSH1 0x20 DUP4 ADD MSTORE SWAP4 SWAP3 POP POP POP JUMP JUMPDEST PUSH1 0x20 DUP2 MSTORE PUSH1 0x0 PUSH2 0x610 PUSH1 0x20 DUP4 ADD DUP5 PUSH2 0x595 JUMP JUMPDEST SWAP4 SWAP3 POP POP POP JUMP JUMPDEST PUSH1 0x0 PUSH1 0x20 DUP3 DUP5 SUB SLT ISZERO PUSH2 0x629 JUMPI PUSH1 0x0 DUP1 REVERT JUMPDEST DUP2 CALLDATALOAD PUSH1 0x1 PUSH1 0x1 PUSH1 0xA0 SHL SUB DUP2 AND DUP2 EQ PUSH2 0x610 JUMPI PUSH1 0x0 DUP1 REVERT JUMPDEST PUSH4 0x4E487B71 PUSH1 0xE0 SHL PUSH1 0x0 MSTORE PUSH1 0x32 PUSH1 0x4 MSTORE PUSH1 0x24 PUSH1 0x0 REVERT JUMPDEST PUSH4 0x4E487B71 PUSH1 0xE0 SHL PUSH1 0x0 MSTORE PUSH1 0x11 PUSH1 0x4 MSTORE PUSH1 0x24 PUSH1 0x0 REVERT JUMPDEST DUP1 DUP3 ADD DUP1 DUP3 GT ISZERO PUSH2 0x67F JUMPI PUSH2 0x67F PUSH2 0x656 JUMP JUMPDEST SWAP3 SWAP2 POP POP JUMP JUMPDEST PUSH1 0x1 DUP2 DUP2 SHR SWAP1 DUP3 AND DUP1 PUSH2 0x699 JUMPI PUSH1 0x7F DUP3 AND SWAP2 POP JUMPDEST PUSH1 0x20 DUP3 LT DUP2 SUB PUSH2 0x6B9 JUMPI PUSH4 0x4E487B71 PUSH1 0xE0 SHL PUSH1 0x0 MSTORE PUSH1 0x22 PUSH1 0x4 MSTORE PUSH1 0x24 PUSH1 0x0 REVERT JUMPDEST POP SWAP2 SWAP1 POP JUMP JUMPDEST PUSH1 0x0 PUSH1 0x1 DUP3 ADD PUSH2 0x6D1 JUMPI PUSH2 0x6D1 PUSH2 0x656 JUMP JUMPDEST POP PUSH1 0x1 ADD SWAP1 JUMP INVALID LOG2 PUSH5 0x6970667358 0x22 SLT KECCAK256 0xEA ISZERO POP SELFDESTRUCT 0xAC GASLIMIT PUSH14 0x5C98C02B02ACB659A2361D94F799 PUSH11 0x24C8580E828D0BAD6D2A64 PUSH20 0x6F6C63430008130033A264697066735822122065 MULMOD BLOCKHASH JUMP 0x25 PUSH11 0x5F716C4EED34DAFCC2A56 PUSH10 0xF9403E0C10A3A8698C54 JUMPDEST BASEFEE 0xD4 PUSH1 0x64 PUSH20 0x6F6C634300081300330000000000000000000000 ","sha1":"f2bdf050331b0ec5cae084c9c58fbd479472c24b","source":"// SPDX-License-Identifier: GPL-3.0\n\npragma solidity >=0.8.2 <0.9.0;\n\n/**\n * @title Factory\n * @dev Factory Smart Contract\n */\n\nimport \"./Pool.sol\";\n\ncontract Factory {\n\n\n    address owner;\n\n    constructor () {\n        owner = msg.sender;\n    }\n\n    modifier onlyOwner() {\n        require(msg.sender == owner, \"You are not the owner\");\n        _;\n    }\n\n    Pool pool;\n    Pool[] public pools;\n\n\n    function createPool(string memory _question, string[] memory _proposals, string memory _img, string memory _link) public  {\n        pool = new Pool(_question, _proposals,_img, _link);\n        pools.push(pool);\n\n    }\n\n    function getquestion(uint _id) public view returns(uint) {\n        Pool poolin = pools[_id];\n        return poolin.GetQuestion();\n\n    }\n\n    function addvoter (uint _id, address[] memory _voters) public {\n        Pool poolin = pools[_id];\n        \n        for (uint i=0; i < _voters.length; i++){\n            poolin.addVoter(_voters[i]);\n        }\n    \n\n    }\n\n    function getwinningproposalname(uint _id) public view returns (string memory winnerName_){\n        Pool poolin = pools[_id];\n        winnerName_ = poolin.winnerProposalName();\n        return winnerName_;\n        \n    }\n\n    // Function to get the length of the 'pools' array\n    function getPoolsLength() public view returns (uint256) {\n        return pools.length;\n    }\n\n\n} ","sourcePath":"contracts/Factory.sol","type":"contract","deployment":{"address":"0x8c96a97DABa1DE055BC19D3E7120f0D614965AE8","chainid":"80001","blockHeight":38145726}}